:020000040000FA
:100000000C9462000C948A000C948A000C948A0070
:100010000C948A000C948A000C948A000C948A0038
:100020000C948A000C948A000C948A000C948A0028
:100030000C948A000C948A000C948A000C948A0018
:100040000C942B030C948A000C948A000C948A0064
:100050000C948A000C948A000C948A000C948A00F8
:100060000C948A000C948A000000000024002700F1
:100070002A0000000000250028002B0000000000DE
:1000800023002600290004040404040404040202DA
:100090000202020203030303030301020408102007
:1000A0004080010204081020010204081020000012
:1000B0000008000201000003040700000000000027
:1000C0000000550511241FBECFEFD8E0DEBFCDBF25
:1000D00011E0A0E0B1E0E8EFFAE002C005900D9277
:1000E000AE3DB107D9F721E0AEEDB1E001C01D9200
:1000F000AF3FB207E1F710E0C2E6D0E004C02197BD
:10010000FE010E947405C136D107C9F70E9475032C
:100110000C947A050C940000833081F028F481302F
:1001200099F08230A9F008958730A9F08830C9F09D
:100130008430B1F4809180008F7D03C08091800075
:100140008F7780938000089584B58F7784BD08955C
:1001500084B58F7DFBCF8091B0008F778093B00006
:1001600008958091B0008F7DF9CFCF93DF93282F32
:1001700030E0F901E255FF4F8491F901E656FF4F57
:10018000D491F901EA57FF4FC491CC23A1F081111A
:100190000E948C00EC2FF0E0EE0FFF1FE458FF4FA1
:1001A000A591B491EC91ED2381E090E009F480E019
:1001B000DF91CF91089580E090E0FACF1F93CF9325
:1001C000DF93282F30E0F901E255FF4F8491F901C8
:1001D000E656FF4FD491F901EA57FF4FC491CC2363
:1001E000A9F0162F81110E948C00EC2FF0E0EE0F89
:1001F000FF1FEE58FF4FA591B4918FB7F894EC9183
:10020000111108C0D095DE23DC938FBFDF91CF9111
:100210001F910895DE2BF8CFCF93DF9390E0FC0180
:10022000E656FF4F24918A579F4FFC018491882303
:10023000D1F090E0880F991FFC01E859FF4FA5917C
:10024000B491FC01EE58FF4FC591D49161110EC0DD
:100250009FB7F8948C91E22FE0958E238C932881A0
:10026000E223E8839FBFDF91CF9108958FB7F89481
:10027000EC91E22BEC938FBFF6CF3FB7F8948091CF
:10028000E3019091E401A091E501B091E60126B56A
:10029000A89B05C02F3F19F00196A11DB11D3FBFBE
:1002A000BA2FA92F982F8827BC01CD01620F711D8D
:1002B000811D911D42E0660F771F881F991F4A9587
:1002C000D1F708958F929F92AF92BF92CF92DF9213
:1002D000EF92FF924B015C010E943D016B017C019A
:1002E0000E943D016C197D098E099F09683E73408B
:1002F00081059105A8F321E0821A9108A108B108AF
:1003000088EEC80E83E0D81EE11CF11C8114910414
:10031000A104B10429F7FF90EF90DF90CF90BF9038
:10032000AF909F908F900895AF92BF92CF92DF923F
:10033000EF92FF920F931F93CF93DF936C017B019A
:100340008B01040F151FEB015E01AE18BF08C0172B
:10035000D10759F06991D601ED91FC910190F0819E
:10036000E02DC6010995892B79F7C501DF91CF9161
:100370001F910F91FF90EF90DF90CF90BF90AF90C3
:100380000895089590E080E00895FC010190002018
:10039000E9F73197AF01481B590BBC0187EE91E09B
:1003A0000C949401CF93DF93EC0160E08E810E9466
:1003B000DE0061E08E810E94DE0060E08E810E949E
:1003C000DE008BE891E00197F1F7DF91CF9108957E
:1003D000CF92DF92EF92FF920F931F93CF93DF9311
:1003E0006C017C0187E0E80EF11CD0E0C0E0062F34
:1003F00010E0B8010C2E02C0759567950A94E2F7DB
:100400006170F70181917F010E94DE002196C43066
:10041000D10579F7C601DF91CF911F910F91FF9020
:10042000EF90DF90CF900C94D201CF92DF92EF92B9
:10043000FF920F931F93CF93DF93EC01F62E642F5F
:100440008C810E94DE008D818F3F19F060E00E9458
:10045000DE000F2D10E08F8584FF25C06E0187E040
:10046000C80ED11CF12CE12CB8010E2C02C07595E0
:1004700067950A94E2F76170F60181916F010E941D
:10048000DE00FFEFEF1AFF0A88E0E816F10461F7DB
:10049000CE01DF91CF911F910F91FF90EF90DF90F0
:1004A000CF900C94D201B80184E0759567958A9538
:1004B000E1F7CE010E94E8016F2DCE01DF91CF91CF
:1004C0001F910F91FF90EF90DF90CF900C94E80177
:1004D00040E0682F87EE91E00C94150281E00E94C5
:1004E00068028BE39FE10197F1F70895CF93DF93C3
:1004F000613029F09091F60198609093F601609335
:10050000FA011092FB0190E49093FC018093FD01AD
:10051000805C8093FE0161E08091EB010E940C0100
:100520008091EC018F3F19F061E00E940C0161E0C5
:100530008091ED010E940C01C7EED1E09E01275E83
:1005400031408091F60184FD0BC084E090E021965B
:100550002817390744F461E08E810E940C01EECF28
:1005600088E090E0F4CF8BE39DE00197F1F760E045
:100570008091EB010E94DE0060E08091ED010E941D
:10058000DE008091EC018F3F19F060E00E94DE00F8
:100590008091F60184FD34C063E087EE91E00E9413
:1005A000E801CBE4D6E4CE010197F1F763E087EEF2
:1005B00091E00E94E8012197F1F763E087EE91E076
:1005C0000E94E80183E592E00197F1F762E087EE8F
:1005D00091E00E94E8018091F60180620E94680229
:1005E00084E08093F7018CE00E9468020E946E0212
:1005F00082E08093F80186E0DF91CF910C9468024D
:1006000080620E9468028BE496E40197F1F7809182
:10061000F60180620E94680283E592E00197F1F79B
:100620008091F60180620E946802D5CF9091FA0114
:10063000691710F06FEF690FE62FF0E0E951FE4FF8
:100640009489890F80680C94680241E00E94150229
:1006500081E090E008951F920F920FB60F9211243F
:100660002F933F938F939F93AF93BF938091DF011D
:100670009091E001A091E101B091E2013091DE01A1
:1006800023E0230F2D3758F50196A11DB11D2093AE
:10069000DE018093DF019093E001A093E101B0932C
:1006A000E2018091E3019091E401A091E501B09114
:1006B000E6010196A11DB11D8093E3019093E40131
:1006C000A093E501B093E601BF91AF919F918F9107
:1006D0003F912F910F900FBE0F901F90189526E815
:1006E000230F0296A11DB11DD2CF789484B58260EC
:1006F00084BD84B5816084BD85B5826085BD85B5C6
:10070000816085BD80916E00816080936E00109243
:1007100081008091810082608093810080918100BE
:10072000816080938100809180008160809380004F
:100730008091B10084608093B1008091B0008160AD
:100740008093B00080917A00846080937A008091D9
:100750007A00826080937A0080917A008160809331
:100760007A0080917A00806880937A001092C100AC
:1007700060E082E00E940C0160E083E00E940C01D6
:1007800061E087E00E940C0161E08DE00E940C01B5
:1007900061E088E00E940C0160E08EE00E940C01A4
:1007A00060E08FE00E940C0164E084E10E94760228
:1007B0000E946E028CE091E00E94C50160ED77E03E
:1007C00080E090E00E94620180E0E82E80E0F82E58
:1007D00082E00E94B500892B69F40E946E028CE1D0
:1007E00091E00E94C50164EF71E080E090E00E941A
:1007F0006201EECF61E087E00E94DE0083E00E94AC
:10080000B500019709F044C161E080E00E94160341
:1008100080E391E00E94C50161E087E00E94DE0074
:1008200062E080E00E94160388E491E00E94C50126
:1008300063E080E00E9416038BE591E00E94C50111
:100840000E946E028BE691E00E94C50161E083E0A8
:100850000E9416038DE791E00E94C50162E083E0EB
:100860000E94160384E891E00E94C50163E083E0E2
:100870000E9416038BE891E00E94C501D0E0C0E021
:1008800010E000E08EE00E94B500892B09F093C0D3
:100890008FE00E94B500892B71F0219664EF71E022
:1008A00080E090E00E94620164EF71E080E090E0FF
:1008B0000E946201E7CFC130D10529F50E946E0286
:1008C00061E080E00E94160382E991E00E94C50188
:1008D00061E083E00E9416038DE791E00E94C5016C
:1008E00062E083E00E94160384E891E00E94C50163
:1008F00063E083E00E9416038BE891E00E94C5014B
:1009000000ED17E0D1CFC230D10529F50E946E026B
:1009100062E080E00E94160382E991E00E94C50136
:1009200061E083E00E9416038DE791E00E94C5011B
:1009300062E083E00E94160384E891E00E94C50112
:1009400063E083E00E9416038BE891E00E94C501FA
:1009500000EA1FE0A9CFC330D10529F50E946E023D
:1009600063E080E00E94160382E991E00E94C501E5
:1009700061E083E00E9416038DE791E00E94C501CB
:1009800062E083E00E94160384E891E00E94C501C2
:1009900063E083E00E9416038BE891E00E94C501AA
:1009A00000E717E181CF91E080E024970CF490E01C
:1009B000C92FD82F79CF0E946E0286E991E00E945C
:1009C000C50161E08DE00E94DE00D0E0C0E0C0170C
:1009D000D1074CF468EE73E080E090E00E94620181
:1009E000C851DC4FF4CF60E08DE00E94DE000E9431
:1009F0006E0283EA91E00E94C50160E087E00E94F8
:100A0000DE0082E00E94B500892BA9F461E088E055
:100A10000E94DE0064EF71E080E090E00E946201DD
:100A200060E088E00E94DE0064EF71E080E090E02A
:100A30000E946201E6CF0E946E0262E083E00E94A3
:100A4000160382EB91E00E94C50161E087E00E94FD
:100A5000DE0068EB7BE080E090E00E94620161E0F4
:100A600088E00E94DE0060ED77E080E090E00E9488
:100A7000620160E088E00E94DE0060E087E00E94A2
:100A8000DE00E114F10409F4A3CE0E940000A0CE20
:100A90000E946E0284EC91E00E94C50168EC70E057
:100AA00080E090E00E946201ECCFE7EEF1E013827B
:100AB000128284E091E0918380838CE084838FEFC5
:100AC00085838BE0868385E0878384E0808789E067
:100AD00081878AE082871386148615861686178694
:100AE00061E080E10C947602EE0FFF1F0590F49117
:100AF000E02D0994F894FFCF000000002503940135
:100B0000C201C10157617368696E67204D616368F6
:100B1000696E650057616974696E6720746F20445F
:100B20007261696E2E2E2E00456D70747920737778
:100B3000697463682069732050726573736564001B
:100B400052656C6179205475726E6564204F4E2E2B
:100B50002E2E00447261696E20436C6F7365642EA3
:100B60002E2E005365742077617368696E67207458
:100B7000696D653A003330204D696E003435204D83
:100B8000696E003630204D696E002D2D3E00576194
:100B90007368696E672E2E2E2E2E00447261696E68
:100BA000696E672077617465720057617368696E5A
:100BB0006720434F4D504C4554454400576169747C
:100BC000696E6720666F722054616E6B20746F20AF
:060BD000456D7074790010
:107E0000112484B714BE81FFF0D085E080938100F7
:107E100082E08093C00088E18093C10086E0809377
:107E2000C20080E18093C4008EE0C9D0259A86E02C
:107E300020E33CEF91E0309385002093840096BBD3
:107E4000B09BFECF1D9AA8958150A9F7CC24DD24C4
:107E500088248394B5E0AB2EA1E19A2EF3E0BF2EE7
:107E6000A2D0813461F49FD0082FAFD0023811F036
:107E7000013811F484E001C083E08DD089C08234E0
:107E800011F484E103C0853419F485E0A6D080C0E4
:107E9000853579F488D0E82EFF2485D0082F10E0AE
:107EA000102F00270E291F29000F111F8ED06801E7
:107EB0006FC0863521F484E090D080E0DECF843638
:107EC00009F040C070D06FD0082F6DD080E0C81688
:107ED00080E7D80618F4F601B7BEE895C0E0D1E017
:107EE00062D089930C17E1F7F0E0CF16F0E7DF06D8
:107EF00018F0F601B7BEE89568D007B600FCFDCFD4
:107F0000A601A0E0B1E02C9130E011968C91119780
:107F100090E0982F8827822B932B1296FA010C0160
:107F200087BEE89511244E5F5F4FF1E0A038BF0790
:107F300051F7F601A7BEE89507B600FCFDCF97BE46
:107F4000E89526C08437B1F42ED02DD0F82E2BD052
:107F50003CD0F601EF2C8F010F5F1F4F84911BD097
:107F6000EA94F801C1F70894C11CD11CFA94CF0C13
:107F7000D11C0EC0853739F428D08EE10CD085E9AC
:107F80000AD08FE07ACF813511F488E018D01DD067
:107F900080E101D065CF982F8091C00085FFFCCF94
:107FA0009093C60008958091C00087FFFCCF809118
:107FB000C00084FD01C0A8958091C6000895E0E648
:107FC000F0E098E1908380830895EDDF803219F02E
:107FD00088E0F5DFFFCF84E1DECF1F93182FE3DFCA
:107FE0001150E9F7F2DF1F91089580E0E8DFEE27F6
:047FF000FF270994CA
:027FFE00040479
:00000001FF
